{
  "_format": "hh-sol-artifact-1",
  "contractName": "CrowdFunding",
  "sourceName": "contracts/CrowdFunding.sol",
  "abi": [
    {
      "inputs": [
        {
          "internalType": "uint256",
          "name": "",
          "type": "uint256"
        }
      ],
      "name": "campaigns",
      "outputs": [
        {
          "internalType": "address",
          "name": "owner",
          "type": "address"
        },
        {
          "internalType": "string",
          "name": "title",
          "type": "string"
        },
        {
          "internalType": "string",
          "name": "description",
          "type": "string"
        },
        {
          "internalType": "uint256",
          "name": "target",
          "type": "uint256"
        },
        {
          "internalType": "uint256",
          "name": "deadline",
          "type": "uint256"
        },
        {
          "internalType": "uint256",
          "name": "amountCollected",
          "type": "uint256"
        }
      ],
      "stateMutability": "view",
      "type": "function"
    },
    {
      "inputs": [
        {
          "internalType": "address",
          "name": "_owner",
          "type": "address"
        },
        {
          "internalType": "string",
          "name": "_title",
          "type": "string"
        },
        {
          "internalType": "string",
          "name": "_description",
          "type": "string"
        },
        {
          "internalType": "uint256",
          "name": "_target",
          "type": "uint256"
        },
        {
          "internalType": "uint256",
          "name": "_deadline",
          "type": "uint256"
        }
      ],
      "name": "createCampaign",
      "outputs": [
        {
          "internalType": "uint256",
          "name": "",
          "type": "uint256"
        }
      ],
      "stateMutability": "nonpayable",
      "type": "function"
    },
    {
      "inputs": [
        {
          "internalType": "uint256",
          "name": "_id",
          "type": "uint256"
        }
      ],
      "name": "donateToCampaign",
      "outputs": [],
      "stateMutability": "payable",
      "type": "function"
    },
    {
      "inputs": [],
      "name": "getCampaigns",
      "outputs": [
        {
          "components": [
            {
              "internalType": "address",
              "name": "owner",
              "type": "address"
            },
            {
              "internalType": "string",
              "name": "title",
              "type": "string"
            },
            {
              "internalType": "string",
              "name": "description",
              "type": "string"
            },
            {
              "internalType": "uint256",
              "name": "target",
              "type": "uint256"
            },
            {
              "internalType": "uint256",
              "name": "deadline",
              "type": "uint256"
            },
            {
              "internalType": "uint256",
              "name": "amountCollected",
              "type": "uint256"
            },
            {
              "internalType": "address[]",
              "name": "donators",
              "type": "address[]"
            },
            {
              "internalType": "uint256[]",
              "name": "donations",
              "type": "uint256[]"
            }
          ],
          "internalType": "struct CrowdFunding.Campaign[]",
          "name": "",
          "type": "tuple[]"
        }
      ],
      "stateMutability": "view",
      "type": "function"
    },
    {
      "inputs": [
        {
          "internalType": "uint256",
          "name": "_id",
          "type": "uint256"
        }
      ],
      "name": "getDonators",
      "outputs": [
        {
          "internalType": "address[]",
          "name": "",
          "type": "address[]"
        },
        {
          "internalType": "uint256[]",
          "name": "",
          "type": "uint256[]"
        }
      ],
      "stateMutability": "view",
      "type": "function"
    },
    {
      "inputs": [],
      "name": "numberOfCampaigns",
      "outputs": [
        {
          "internalType": "uint256",
          "name": "",
          "type": "uint256"
        }
      ],
      "stateMutability": "view",
      "type": "function"
    }
  ],
  "bytecode": "0x6080604052600060015534801561001557600080fd5b5061178a806100256000396000f3fe6080604052600436106100555760003560e01c8063075843c31461005a57806307ca140d146100975780630fa91fa9146100c2578063141961bc1461010057806342a4fda814610142578063a6b036331461015e575b600080fd5b34801561006657600080fd5b50610081600480360381019061007c9190610c05565b610189565b60405161008e9190610cc7565b60405180910390f35b3480156100a357600080fd5b506100ac610299565b6040516100b99190610cc7565b60405180910390f35b3480156100ce57600080fd5b506100e960048036038101906100e49190610ce2565b61029f565b6040516100f7929190610e8b565b60405180910390f35b34801561010c57600080fd5b5061012760048036038101906101229190610ce2565b6103af565b60405161013996959493929190610f50565b60405180910390f35b61015c60048036038101906101579190610ce2565b61051b565b005b34801561016a57600080fd5b5061017361067e565b604051610180919061126e565b60405180910390f35b600080600080600154815260200190815260200160002090504283116101e4576040517f08c379a00000000000000000000000000000000000000000000000000000000081526004016101db90611302565b60405180910390fd5b868160000160006101000a81548173ffffffffffffffffffffffffffffffffffffffff021916908373ffffffffffffffffffffffffffffffffffffffff16021790555085816001019081610238919061152e565b508481600201908161024a919061152e565b50838160030181905550828160040181905550600081600501819055506001600081548092919061027a9061162f565b91905055506001805461028d9190611677565b91505095945050505050565b60015481565b6060806000808481526020019081526020016000206006016000808581526020019081526020016000206007018180548060200260200160405190810160405280929190818152602001828054801561034d57602002820191906000526020600020905b8160009054906101000a900473ffffffffffffffffffffffffffffffffffffffff1673ffffffffffffffffffffffffffffffffffffffff1681526020019060010190808311610303575b505050505091508080548060200260200160405190810160405280929190818152602001828054801561039f57602002820191906000526020600020905b81548152602001906001019080831161038b575b5050505050905091509150915091565b60006020528060005260406000206000915090508060000160009054906101000a900473ffffffffffffffffffffffffffffffffffffffff16908060010180546103f890611351565b80601f016020809104026020016040519081016040528092919081815260200182805461042490611351565b80156104715780601f1061044657610100808354040283529160200191610471565b820191906000526020600020905b81548152906001019060200180831161045457829003601f168201915b50505050509080600201805461048690611351565b80601f01602080910402602001604051908101604052809291908181526020018280546104b290611351565b80156104ff5780601f106104d4576101008083540402835291602001916104ff565b820191906000526020600020905b8154815290600101906020018083116104e257829003601f168201915b5050505050908060030154908060040154908060050154905086565b60003490506000806000848152602001908152602001600020905080600601339080600181540180825580915050600190039060005260206000200160009091909190916101000a81548173ffffffffffffffffffffffffffffffffffffffff021916908373ffffffffffffffffffffffffffffffffffffffff1602179055508060070182908060018154018082558091505060019003906000526020600020016000909190919091505560008160000160009054906101000a900473ffffffffffffffffffffffffffffffffffffffff1673ffffffffffffffffffffffffffffffffffffffff1683604051610610906116dc565b60006040518083038185875af1925050503d806000811461064d576040519150601f19603f3d011682016040523d82523d6000602084013e610652565b606091505b505090508015610678578282600501600082825461067091906116f1565b925050819055505b50505050565b6060600060015467ffffffffffffffff81111561069e5761069d610aa4565b5b6040519080825280602002602001820160405280156106d757816020015b6106c46109bc565b8152602001906001900390816106bc5790505b50905060005b6001548110156109b4576000806000838152602001908152602001600020905080604051806101000160405290816000820160009054906101000a900473ffffffffffffffffffffffffffffffffffffffff1673ffffffffffffffffffffffffffffffffffffffff1673ffffffffffffffffffffffffffffffffffffffff16815260200160018201805461077090611351565b80601f016020809104026020016040519081016040528092919081815260200182805461079c90611351565b80156107e95780601f106107be576101008083540402835291602001916107e9565b820191906000526020600020905b8154815290600101906020018083116107cc57829003601f168201915b5050505050815260200160028201805461080290611351565b80601f016020809104026020016040519081016040528092919081815260200182805461082e90611351565b801561087b5780601f106108505761010080835404028352916020019161087b565b820191906000526020600020905b81548152906001019060200180831161085e57829003601f168201915b505050505081526020016003820154815260200160048201548152602001600582015481526020016006820180548060200260200160405190810160405280929190818152602001828054801561092757602002820191906000526020600020905b8160009054906101000a900473ffffffffffffffffffffffffffffffffffffffff1673ffffffffffffffffffffffffffffffffffffffff16815260200190600101908083116108dd575b505050505081526020016007820180548060200260200160405190810160405280929190818152602001828054801561097f57602002820191906000526020600020905b81548152602001906001019080831161096b575b50505050508152505083838151811061099b5761099a611725565b5b60200260200101819052505080806001019150506106dd565b508091505090565b604051806101000160405280600073ffffffffffffffffffffffffffffffffffffffff168152602001606081526020016060815260200160008152602001600081526020016000815260200160608152602001606081525090565b6000604051905090565b600080fd5b600080fd5b600073ffffffffffffffffffffffffffffffffffffffff82169050919050565b6000610a5682610a2b565b9050919050565b610a6681610a4b565b8114610a7157600080fd5b50565b600081359050610a8381610a5d565b92915050565b600080fd5b600080fd5b6000601f19601f8301169050919050565b7f4e487b7100000000000000000000000000000000000000000000000000000000600052604160045260246000fd5b610adc82610a93565b810181811067ffffffffffffffff82111715610afb57610afa610aa4565b5b80604052505050565b6000610b0e610a17565b9050610b1a8282610ad3565b919050565b600067ffffffffffffffff821115610b3a57610b39610aa4565b5b610b4382610a93565b9050602081019050919050565b82818337600083830152505050565b6000610b72610b6d84610b1f565b610b04565b905082815260208101848484011115610b8e57610b8d610a8e565b5b610b99848285610b50565b509392505050565b600082601f830112610bb657610bb5610a89565b5b8135610bc6848260208601610b5f565b91505092915050565b6000819050919050565b610be281610bcf565b8114610bed57600080fd5b50565b600081359050610bff81610bd9565b92915050565b600080600080600060a08688031215610c2157610c20610a21565b5b6000610c2f88828901610a74565b955050602086013567ffffffffffffffff811115610c5057610c4f610a26565b5b610c5c88828901610ba1565b945050604086013567ffffffffffffffff811115610c7d57610c7c610a26565b5b610c8988828901610ba1565b9350506060610c9a88828901610bf0565b9250506080610cab88828901610bf0565b9150509295509295909350565b610cc181610bcf565b82525050565b6000602082019050610cdc6000830184610cb8565b92915050565b600060208284031215610cf857610cf7610a21565b5b6000610d0684828501610bf0565b91505092915050565b600081519050919050565b600082825260208201905092915050565b6000819050602082019050919050565b610d4481610a4b565b82525050565b6000610d568383610d3b565b60208301905092915050565b6000602082019050919050565b6000610d7a82610d0f565b610d848185610d1a565b9350610d8f83610d2b565b8060005b83811015610dc0578151610da78882610d4a565b9750610db283610d62565b925050600181019050610d93565b5085935050505092915050565b600081519050919050565b600082825260208201905092915050565b6000819050602082019050919050565b610e0281610bcf565b82525050565b6000610e148383610df9565b60208301905092915050565b6000602082019050919050565b6000610e3882610dcd565b610e428185610dd8565b9350610e4d83610de9565b8060005b83811015610e7e578151610e658882610e08565b9750610e7083610e20565b925050600181019050610e51565b5085935050505092915050565b60006040820190508181036000830152610ea58185610d6f565b90508181036020830152610eb98184610e2d565b90509392505050565b610ecb81610a4b565b82525050565b600081519050919050565b600082825260208201905092915050565b60005b83811015610f0b578082015181840152602081019050610ef0565b60008484015250505050565b6000610f2282610ed1565b610f2c8185610edc565b9350610f3c818560208601610eed565b610f4581610a93565b840191505092915050565b600060c082019050610f656000830189610ec2565b8181036020830152610f778188610f17565b90508181036040830152610f8b8187610f17565b9050610f9a6060830186610cb8565b610fa76080830185610cb8565b610fb460a0830184610cb8565b979650505050505050565b600081519050919050565b600082825260208201905092915050565b6000819050602082019050919050565b600082825260208201905092915050565b600061100782610ed1565b6110118185610feb565b9350611021818560208601610eed565b61102a81610a93565b840191505092915050565b600082825260208201905092915050565b600061105182610d0f565b61105b8185611035565b935061106683610d2b565b8060005b8381101561109757815161107e8882610d4a565b975061108983610d62565b92505060018101905061106a565b5085935050505092915050565b600082825260208201905092915050565b60006110c082610dcd565b6110ca81856110a4565b93506110d583610de9565b8060005b838110156111065781516110ed8882610e08565b97506110f883610e20565b9250506001810190506110d9565b5085935050505092915050565b60006101008301600083015161112c6000860182610d3b565b50602083015184820360208601526111448282610ffc565b9150506040830151848203604086015261115e8282610ffc565b91505060608301516111736060860182610df9565b5060808301516111866080860182610df9565b5060a083015161119960a0860182610df9565b5060c083015184820360c08601526111b18282611046565b91505060e083015184820360e08601526111cb82826110b5565b9150508091505092915050565b60006111e48383611113565b905092915050565b6000602082019050919050565b600061120482610fbf565b61120e8185610fca565b93508360208202850161122085610fdb565b8060005b8581101561125c578484038952815161123d85826111d8565b9450611248836111ec565b925060208a01995050600181019050611224565b50829750879550505050505092915050565b6000602082019050818103600083015261128881846111f9565b905092915050565b7f54686520646561646c696e65206d7573742062652073657420746f206120667560008201527f7475726520646174650000000000000000000000000000000000000000000000602082015250565b60006112ec602983610edc565b91506112f782611290565b604082019050919050565b6000602082019050818103600083015261131b816112df565b9050919050565b7f4e487b7100000000000000000000000000000000000000000000000000000000600052602260045260246000fd5b6000600282049050600182168061136957607f821691505b60208210810361137c5761137b611322565b5b50919050565b60008190508160005260206000209050919050565b60006020601f8301049050919050565b600082821b905092915050565b6000600883026113e47fffffffffffffffffffffffffffffffffffffffffffffffffffffffffffffffff826113a7565b6113ee86836113a7565b95508019841693508086168417925050509392505050565b6000819050919050565b600061142b61142661142184610bcf565b611406565b610bcf565b9050919050565b6000819050919050565b61144583611410565b61145961145182611432565b8484546113b4565b825550505050565b600090565b61146e611461565b61147981848461143c565b505050565b5b8181101561149d57611492600082611466565b60018101905061147f565b5050565b601f8211156114e2576114b381611382565b6114bc84611397565b810160208510156114cb578190505b6114df6114d785611397565b83018261147e565b50505b505050565b600082821c905092915050565b6000611505600019846008026114e7565b1980831691505092915050565b600061151e83836114f4565b9150826002028217905092915050565b61153782610ed1565b67ffffffffffffffff8111156115505761154f610aa4565b5b61155a8254611351565b6115658282856114a1565b600060209050601f8311600181146115985760008415611586578287015190505b6115908582611512565b8655506115f8565b601f1984166115a686611382565b60005b828110156115ce578489015182556001820191506020850194506020810190506115a9565b868310156115eb57848901516115e7601f8916826114f4565b8355505b6001600288020188555050505b505050505050565b7f4e487b7100000000000000000000000000000000000000000000000000000000600052601160045260246000fd5b600061163a82610bcf565b91507fffffffffffffffffffffffffffffffffffffffffffffffffffffffffffffffff820361166c5761166b611600565b5b600182019050919050565b600061168282610bcf565b915061168d83610bcf565b92508282039050818111156116a5576116a4611600565b5b92915050565b600081905092915050565b50565b60006116c66000836116ab565b91506116d1826116b6565b600082019050919050565b60006116e7826116b9565b9150819050919050565b60006116fc82610bcf565b915061170783610bcf565b925082820190508082111561171f5761171e611600565b5b92915050565b7f4e487b7100000000000000000000000000000000000000000000000000000000600052603260045260246000fdfea26469706673582212201c914fd529f9a6a04a2489294306e84d71448ef06a7b70d4876b4f346dff16f864736f6c63430008180033",
  "linkReferences": {},
  "deployedLinkReferences": {}
}